{
  "contractName": "Proposals",
  "abi": [
    {
      "inputs": [
        {
          "internalType": "address",
          "name": "token_",
          "type": "address"
        },
        {
          "internalType": "address",
          "name": "guardian_",
          "type": "address"
        }
      ],
      "stateMutability": "nonpayable",
      "type": "constructor"
    },
    {
      "anonymous": false,
      "inputs": [
        {
          "indexed": false,
          "internalType": "uint256",
          "name": "id",
          "type": "uint256"
        },
        {
          "indexed": false,
          "internalType": "address",
          "name": "proposer",
          "type": "address"
        },
        {
          "indexed": false,
          "internalType": "address[]",
          "name": "targets",
          "type": "address[]"
        },
        {
          "indexed": false,
          "internalType": "uint256[]",
          "name": "values",
          "type": "uint256[]"
        },
        {
          "indexed": false,
          "internalType": "string[]",
          "name": "signatures",
          "type": "string[]"
        },
        {
          "indexed": false,
          "internalType": "bytes[]",
          "name": "calldatas",
          "type": "bytes[]"
        },
        {
          "indexed": false,
          "internalType": "uint256",
          "name": "startBlock",
          "type": "uint256"
        },
        {
          "indexed": false,
          "internalType": "uint256",
          "name": "endBlock",
          "type": "uint256"
        },
        {
          "indexed": false,
          "internalType": "string",
          "name": "description",
          "type": "string"
        }
      ],
      "name": "ProposalCreated",
      "type": "event"
    },
    {
      "inputs": [],
      "name": "guardian",
      "outputs": [
        {
          "internalType": "address",
          "name": "",
          "type": "address"
        }
      ],
      "stateMutability": "view",
      "type": "function"
    },
    {
      "inputs": [
        {
          "internalType": "address",
          "name": "",
          "type": "address"
        }
      ],
      "name": "latestProposalIds",
      "outputs": [
        {
          "internalType": "uint256",
          "name": "",
          "type": "uint256"
        }
      ],
      "stateMutability": "view",
      "type": "function"
    },
    {
      "inputs": [],
      "name": "name",
      "outputs": [
        {
          "internalType": "string",
          "name": "",
          "type": "string"
        }
      ],
      "stateMutability": "view",
      "type": "function"
    },
    {
      "inputs": [],
      "name": "proposalCount",
      "outputs": [
        {
          "internalType": "uint256",
          "name": "",
          "type": "uint256"
        }
      ],
      "stateMutability": "view",
      "type": "function"
    },
    {
      "inputs": [
        {
          "internalType": "uint256",
          "name": "",
          "type": "uint256"
        }
      ],
      "name": "proposals",
      "outputs": [
        {
          "internalType": "uint256",
          "name": "id",
          "type": "uint256"
        },
        {
          "internalType": "address",
          "name": "proposer",
          "type": "address"
        },
        {
          "internalType": "uint256",
          "name": "eta",
          "type": "uint256"
        },
        {
          "internalType": "uint256",
          "name": "startBlock",
          "type": "uint256"
        },
        {
          "internalType": "uint256",
          "name": "endBlock",
          "type": "uint256"
        },
        {
          "internalType": "uint256",
          "name": "forVotes",
          "type": "uint256"
        },
        {
          "internalType": "uint256",
          "name": "againstVotes",
          "type": "uint256"
        },
        {
          "internalType": "bool",
          "name": "canceled",
          "type": "bool"
        },
        {
          "internalType": "bool",
          "name": "executed",
          "type": "bool"
        }
      ],
      "stateMutability": "view",
      "type": "function"
    },
    {
      "inputs": [],
      "name": "token",
      "outputs": [
        {
          "internalType": "contract TokenInterface",
          "name": "",
          "type": "address"
        }
      ],
      "stateMutability": "view",
      "type": "function"
    },
    {
      "inputs": [],
      "name": "quorumVotes",
      "outputs": [
        {
          "internalType": "uint256",
          "name": "",
          "type": "uint256"
        }
      ],
      "stateMutability": "pure",
      "type": "function"
    },
    {
      "inputs": [],
      "name": "proposalThreshold",
      "outputs": [
        {
          "internalType": "uint256",
          "name": "",
          "type": "uint256"
        }
      ],
      "stateMutability": "pure",
      "type": "function"
    },
    {
      "inputs": [],
      "name": "proposalMaxOperations",
      "outputs": [
        {
          "internalType": "uint256",
          "name": "",
          "type": "uint256"
        }
      ],
      "stateMutability": "pure",
      "type": "function"
    },
    {
      "inputs": [],
      "name": "votingDelay",
      "outputs": [
        {
          "internalType": "uint256",
          "name": "",
          "type": "uint256"
        }
      ],
      "stateMutability": "pure",
      "type": "function"
    },
    {
      "inputs": [],
      "name": "votingPeriod",
      "outputs": [
        {
          "internalType": "uint256",
          "name": "",
          "type": "uint256"
        }
      ],
      "stateMutability": "pure",
      "type": "function"
    },
    {
      "inputs": [
        {
          "internalType": "address[]",
          "name": "targets",
          "type": "address[]"
        },
        {
          "internalType": "uint256[]",
          "name": "values",
          "type": "uint256[]"
        },
        {
          "internalType": "string[]",
          "name": "signatures",
          "type": "string[]"
        },
        {
          "internalType": "bytes[]",
          "name": "calldatas",
          "type": "bytes[]"
        },
        {
          "internalType": "string",
          "name": "description",
          "type": "string"
        }
      ],
      "name": "propose",
      "outputs": [
        {
          "internalType": "uint256",
          "name": "",
          "type": "uint256"
        }
      ],
      "stateMutability": "nonpayable",
      "type": "function"
    },
    {
      "inputs": [
        {
          "internalType": "uint256",
          "name": "proposalId",
          "type": "uint256"
        }
      ],
      "name": "state",
      "outputs": [
        {
          "internalType": "enum Proposals.ProposalState",
          "name": "",
          "type": "uint8"
        }
      ],
      "stateMutability": "view",
      "type": "function"
    }
  ],
  "bytecode": "0x60806040523480156200001157600080fd5b50604051620023ea380380620023ea8339818101604052810190620000379190620000d7565b816000806101000a81548173ffffffffffffffffffffffffffffffffffffffff021916908373ffffffffffffffffffffffffffffffffffffffff16021790555080600160006101000a81548173ffffffffffffffffffffffffffffffffffffffff021916908373ffffffffffffffffffffffffffffffffffffffff160217905550505062000166565b600081519050620000d1816200014c565b92915050565b60008060408385031215620000eb57600080fd5b6000620000fb85828601620000c0565b92505060206200010e85828601620000c0565b9150509250929050565b600062000125826200012c565b9050919050565b600073ffffffffffffffffffffffffffffffffffffffff82169050919050565b620001578162000118565b81146200016357600080fd5b50565b61227480620001766000396000f3fe608060405234801561001057600080fd5b50600436106100cf5760003560e01c80633e4f49e61161008c578063b58131b011610066578063b58131b014610220578063da35c6641461023e578063da95691a1461025c578063fc0c546a1461028c576100cf565b80633e4f49e6146101b4578063452a9320146101e45780637bdbe4d014610202576100cf565b8063013cf08b146100d457806302a251a31461010c57806306fdde031461012a57806317977c611461014857806324bc1a64146101785780633932abb114610196575b600080fd5b6100ee60048036038101906100e9919061139b565b6102aa565b60405161010399989796959493929190611c5c565b60405180910390f35b610114610332565b6040516101219190611b91565b60405180910390f35b61013261033c565b60405161013f9190611a8f565b60405180910390f35b610162600480360381019061015d9190611283565b610375565b60405161016f9190611b91565b60405180910390f35b61018061038d565b60405161018d9190611b91565b60405180910390f35b61019e61039f565b6040516101ab9190611b91565b60405180910390f35b6101ce60048036038101906101c9919061139b565b6103a8565b6040516101db9190611a74565b60405180910390f35b6101ec6104d0565b6040516101f99190611a15565b60405180910390f35b61020a6104f6565b6040516102179190611b91565b60405180910390f35b6102286104ff565b6040516102359190611b91565b60405180910390f35b610246610511565b6040516102539190611b91565b60405180910390f35b610276600480360381019061027191906112ac565b610517565b6040516102839190611b91565b60405180910390f35b610294610b8e565b6040516102a19190611a59565b60405180910390f35b60036020528060005260406000206000915090508060000154908060010160009054906101000a900473ffffffffffffffffffffffffffffffffffffffff169080600201549080600701549080600801549080600901549080600a01549080600b0160009054906101000a900460ff169080600b0160019054906101000a900460ff16905089565b6000614380905090565b6040518060400160405280600981526020017f50726f706f73616c73000000000000000000000000000000000000000000000081525081565b60046020528060005260406000206000915090505481565b60006954b40b1f852bda000000905090565b60006001905090565b600081600254101580156103bc5750600082115b6103fb576040517f08c379a00000000000000000000000000000000000000000000000000000000081526004016103f290611b51565b60405180910390fd5b600060036000848152602001908152602001600020905080600b0160009054906101000a900460ff16156104335760029150506104cb565b806007015443116104485760009150506104cb565b8060080154431161045d5760019150506104cb565b80600a0154816009015411158061047e575061047761038d565b8160090154105b1561048d5760039150506104cb565b6000816002015414156104a45760049150506104cb565b80600b0160019054906101000a900460ff16156104c55760079150506104cb565b60059150505b919050565b600160009054906101000a900473ffffffffffffffffffffffffffffffffffffffff1681565b6000600a905090565b600069152d02c7e14af6800000905090565b60025481565b60006105216104ff565b60008054906101000a900473ffffffffffffffffffffffffffffffffffffffff1673ffffffffffffffffffffffffffffffffffffffff1663782d6fe13360014361056b9190611fad565b6040518363ffffffff1660e01b8152600401610588929190611a30565b60206040518083038186803b1580156105a057600080fd5b505afa1580156105b4573d6000803e3d6000fd5b505050506040513d601f19601f820116820180604052508101906105d891906113c4565b11610618576040517f08c379a000000000000000000000000000000000000000000000000000000000815260040161060f90611af1565b60405180910390fd5b8451865114801561062a575083518651145b8015610637575082518651145b610676576040517f08c379a000000000000000000000000000000000000000000000000000000000815260040161066d90611b11565b60405180910390fd5b6000865114156106bb576040517f08c379a00000000000000000000000000000000000000000000000000000000081526004016106b290611ab1565b60405180910390fd5b6106c36104f6565b86511115610706576040517f08c379a00000000000000000000000000000000000000000000000000000000081526004016106fd90611b31565b60405180910390fd5b6000600460003373ffffffffffffffffffffffffffffffffffffffff1673ffffffffffffffffffffffffffffffffffffffff168152602001908152602001600020549050600081146108c957600061075d826103a8565b905060016007811115610799577f4e487b7100000000000000000000000000000000000000000000000000000000600052602160045260246000fd5b8160078111156107d2577f4e487b7100000000000000000000000000000000000000000000000000000000600052602160045260246000fd5b1415610813576040517f08c379a000000000000000000000000000000000000000000000000000000000815260040161080a90611ad1565b60405180910390fd5b6000600781111561084d577f4e487b7100000000000000000000000000000000000000000000000000000000600052602160045260246000fd5b816007811115610886577f4e487b7100000000000000000000000000000000000000000000000000000000600052602160045260246000fd5b14156108c7576040517f08c379a00000000000000000000000000000000000000000000000000000000081526004016108be90611b71565b60405180910390fd5b505b60006108d361039f565b436108de9190611f57565b905060006108ea610332565b826108f59190611f57565b90506002600081548092919061090a906120e6565b91905055506000604051806101a0016040528060025481526020013373ffffffffffffffffffffffffffffffffffffffff168152602001600081526020018b81526020018a815260200189815260200188815260200184815260200183815260200160008152602001600081526020016000151581526020016000151581525090508060036000836000015181526020019081526020016000206000820151816000015560208201518160010160006101000a81548173ffffffffffffffffffffffffffffffffffffffff021916908373ffffffffffffffffffffffffffffffffffffffff160217905550604082015181600201556060820151816003019080519060200190610a1b929190610bb2565b506080820151816004019080519060200190610a38929190610c3c565b5060a0820151816005019080519060200190610a55929190610c89565b5060c0820151816006019080519060200190610a72929190610ce9565b5060e082015181600701556101008201518160080155610120820151816009015561014082015181600a015561016082015181600b0160006101000a81548160ff02191690831515021790555061018082015181600b0160016101000a81548160ff021916908315150217905550905050806000015160046000836020015173ffffffffffffffffffffffffffffffffffffffff1673ffffffffffffffffffffffffffffffffffffffff168152602001908152602001600020819055507f7d84a6263ae0d98d3329bd7b46bb4e8d6f98cd35a7adb45c274c8b7fd5ebd5e08160000151338c8c8c8c89898e604051610b7299989796959493929190611bac565b60405180910390a1806000015194505050505095945050505050565b60008054906101000a900473ffffffffffffffffffffffffffffffffffffffff1681565b828054828255906000526020600020908101928215610c2b579160200282015b82811115610c2a5782518260006101000a81548173ffffffffffffffffffffffffffffffffffffffff021916908373ffffffffffffffffffffffffffffffffffffffff16021790555091602001919060010190610bd2565b5b509050610c389190610d49565b5090565b828054828255906000526020600020908101928215610c78579160200282015b82811115610c77578251825591602001919060010190610c5c565b5b509050610c859190610d49565b5090565b828054828255906000526020600020908101928215610cd8579160200282015b82811115610cd7578251829080519060200190610cc7929190610d66565b5091602001919060010190610ca9565b5b509050610ce59190610dec565b5090565b828054828255906000526020600020908101928215610d38579160200282015b82811115610d37578251829080519060200190610d27929190610e10565b5091602001919060010190610d09565b5b509050610d459190610e96565b5090565b5b80821115610d62576000816000905550600101610d4a565b5090565b828054610d72906120b4565b90600052602060002090601f016020900481019282610d945760008555610ddb565b82601f10610dad57805160ff1916838001178555610ddb565b82800160010185558215610ddb579182015b82811115610dda578251825591602001919060010190610dbf565b5b509050610de89190610d49565b5090565b5b80821115610e0c5760008181610e039190610eba565b50600101610ded565b5090565b828054610e1c906120b4565b90600052602060002090601f016020900481019282610e3e5760008555610e85565b82601f10610e5757805160ff1916838001178555610e85565b82800160010185558215610e85579182015b82811115610e84578251825591602001919060010190610e69565b5b509050610e929190610d49565b5090565b5b80821115610eb65760008181610ead9190610efa565b50600101610e97565b5090565b508054610ec6906120b4565b6000825580601f10610ed85750610ef7565b601f016020900490600052602060002090810190610ef69190610d49565b5b50565b508054610f06906120b4565b6000825580601f10610f185750610f37565b601f016020900490600052602060002090810190610f369190610d49565b5b50565b6000610f4d610f4884611d1a565b611ce9565b90508083825260208201905082856020860282011115610f6c57600080fd5b60005b85811015610f9c5781610f828882611148565b845260208401935060208301925050600181019050610f6f565b5050509392505050565b6000610fb9610fb484611d46565b611ce9565b9050808382526020820190508260005b85811015610ff95781358501610fdf8882611205565b845260208401935060208301925050600181019050610fc9565b5050509392505050565b600061101661101184611d72565b611ce9565b9050808382526020820190508260005b85811015611056578135850161103c888261122f565b845260208401935060208301925050600181019050611026565b5050509392505050565b600061107361106e84611d9e565b611ce9565b9050808382526020820190508285602086028201111561109257600080fd5b60005b858110156110c257816110a88882611259565b845260208401935060208301925050600181019050611095565b5050509392505050565b60006110df6110da84611dca565b611ce9565b9050828152602081018484840111156110f757600080fd5b611102848285612072565b509392505050565b600061111d61111884611dfa565b611ce9565b90508281526020810184848401111561113557600080fd5b611140848285612072565b509392505050565b60008135905061115781612210565b92915050565b600082601f83011261116e57600080fd5b813561117e848260208601610f3a565b91505092915050565b600082601f83011261119857600080fd5b81356111a8848260208601610fa6565b91505092915050565b600082601f8301126111c257600080fd5b81356111d2848260208601611003565b91505092915050565b600082601f8301126111ec57600080fd5b81356111fc848260208601611060565b91505092915050565b600082601f83011261121657600080fd5b81356112268482602086016110cc565b91505092915050565b600082601f83011261124057600080fd5b813561125084826020860161110a565b91505092915050565b60008135905061126881612227565b92915050565b60008151905061127d81612227565b92915050565b60006020828403121561129557600080fd5b60006112a384828501611148565b91505092915050565b600080600080600060a086880312156112c457600080fd5b600086013567ffffffffffffffff8111156112de57600080fd5b6112ea8882890161115d565b955050602086013567ffffffffffffffff81111561130757600080fd5b611313888289016111db565b945050604086013567ffffffffffffffff81111561133057600080fd5b61133c888289016111b1565b935050606086013567ffffffffffffffff81111561135957600080fd5b61136588828901611187565b925050608086013567ffffffffffffffff81111561138257600080fd5b61138e8882890161122f565b9150509295509295909350565b6000602082840312156113ad57600080fd5b60006113bb84828501611259565b91505092915050565b6000602082840312156113d657600080fd5b60006113e48482850161126e565b91505092915050565b60006113f98383611445565b60208301905092915050565b60006114118383611618565b905092915050565b6000611425838361166f565b905092915050565b600061143983836119f7565b60208301905092915050565b61144e81611fe1565b82525050565b61145d81611fe1565b82525050565b600061146e82611e6a565b6114788185611ee0565b935061148383611e2a565b8060005b838110156114b457815161149b88826113ed565b97506114a683611eac565b925050600181019050611487565b5085935050505092915050565b60006114cc82611e75565b6114d68185611ef1565b9350836020820285016114e885611e3a565b8060005b8581101561152457848403895281516115058582611405565b945061151083611eb9565b925060208a019950506001810190506114ec565b50829750879550505050505092915050565b600061154182611e80565b61154b8185611f02565b93508360208202850161155d85611e4a565b8060005b85811015611599578484038952815161157a8582611419565b945061158583611ec6565b925060208a01995050600181019050611561565b50829750879550505050505092915050565b60006115b682611e8b565b6115c08185611f13565b93506115cb83611e5a565b8060005b838110156115fc5781516115e3888261142d565b97506115ee83611ed3565b9250506001810190506115cf565b5085935050505092915050565b61161281611ff3565b82525050565b600061162382611e96565b61162d8185611f24565b935061163d818560208601612081565b611646816121eb565b840191505092915050565b61165a8161203c565b82525050565b61166981612060565b82525050565b600061167a82611ea1565b6116848185611f35565b9350611694818560208601612081565b61169d816121eb565b840191505092915050565b60006116b382611ea1565b6116bd8185611f46565b93506116cd818560208601612081565b6116d6816121eb565b840191505092915050565b60006116ee602883611f46565b91507f50726f706f73616c733a3a70726f706f73653a206d7573742070726f7669646560008301527f20616374696f6e730000000000000000000000000000000000000000000000006020830152604082019050919050565b6000611754605483611f46565b91507f50726f706f73616c733a3a70726f706f73653a206f6e65206c6976652070726f60008301527f706f73616c207065722070726f706f7365722c20666f756e6420616e20616c7260208301527f65616479206163746976652070726f706f73616c0000000000000000000000006040830152606082019050919050565b60006117e0603b83611f46565b91507f50726f706f73616c733a3a70726f706f73653a2070726f706f73657220766f7460008301527f65732062656c6f772070726f706f73616c207468726573686f6c6400000000006020830152604082019050919050565b6000611846604083611f46565b91507f50726f706f73616c733a3a70726f706f73653a2070726f706f73616c2066756e60008301527f6374696f6e20696e666f726d6174696f6e206172697479206d69736d617463686020830152604082019050919050565b60006118ac602483611f46565b91507f50726f706f73616c733a3a70726f706f73653a20746f6f206d616e792061637460008301527f696f6e73000000000000000000000000000000000000000000000000000000006020830152604082019050919050565b6000611912602583611f46565b91507f50726f706f73616c733a3a73746174653a20696e76616c69642070726f706f7360008301527f616c2069640000000000000000000000000000000000000000000000000000006020830152604082019050919050565b6000611978605583611f46565b91507f50726f706f73616c733a3a70726f706f73653a206f6e65206c6976652070726f60008301527f706f73616c207065722070726f706f7365722c20666f756e6420616e20616c7260208301527f656164792070656e64696e672070726f706f73616c00000000000000000000006040830152606082019050919050565b611a0081612032565b82525050565b611a0f81612032565b82525050565b6000602082019050611a2a6000830184611454565b92915050565b6000604082019050611a456000830185611454565b611a526020830184611a06565b9392505050565b6000602082019050611a6e6000830184611651565b92915050565b6000602082019050611a896000830184611660565b92915050565b60006020820190508181036000830152611aa981846116a8565b905092915050565b60006020820190508181036000830152611aca816116e1565b9050919050565b60006020820190508181036000830152611aea81611747565b9050919050565b60006020820190508181036000830152611b0a816117d3565b9050919050565b60006020820190508181036000830152611b2a81611839565b9050919050565b60006020820190508181036000830152611b4a8161189f565b9050919050565b60006020820190508181036000830152611b6a81611905565b9050919050565b60006020820190508181036000830152611b8a8161196b565b9050919050565b6000602082019050611ba66000830184611a06565b92915050565b600061012082019050611bc2600083018c611a06565b611bcf602083018b611454565b8181036040830152611be1818a611463565b90508181036060830152611bf581896115ab565b90508181036080830152611c098188611536565b905081810360a0830152611c1d81876114c1565b9050611c2c60c0830186611a06565b611c3960e0830185611a06565b818103610100830152611c4c81846116a8565b90509a9950505050505050505050565b600061012082019050611c72600083018c611a06565b611c7f602083018b611454565b611c8c604083018a611a06565b611c996060830189611a06565b611ca66080830188611a06565b611cb360a0830187611a06565b611cc060c0830186611a06565b611ccd60e0830185611609565b611cdb610100830184611609565b9a9950505050505050505050565b6000604051905081810181811067ffffffffffffffff82111715611d1057611d0f6121bc565b5b8060405250919050565b600067ffffffffffffffff821115611d3557611d346121bc565b5b602082029050602081019050919050565b600067ffffffffffffffff821115611d6157611d606121bc565b5b602082029050602081019050919050565b600067ffffffffffffffff821115611d8d57611d8c6121bc565b5b602082029050602081019050919050565b600067ffffffffffffffff821115611db957611db86121bc565b5b602082029050602081019050919050565b600067ffffffffffffffff821115611de557611de46121bc565b5b601f19601f8301169050602081019050919050565b600067ffffffffffffffff821115611e1557611e146121bc565b5b601f19601f8301169050602081019050919050565b6000819050602082019050919050565b6000819050602082019050919050565b6000819050602082019050919050565b6000819050602082019050919050565b600081519050919050565b600081519050919050565b600081519050919050565b600081519050919050565b600081519050919050565b600081519050919050565b6000602082019050919050565b6000602082019050919050565b6000602082019050919050565b6000602082019050919050565b600082825260208201905092915050565b600082825260208201905092915050565b600082825260208201905092915050565b600082825260208201905092915050565b600082825260208201905092915050565b600082825260208201905092915050565b600082825260208201905092915050565b6000611f6282612032565b9150611f6d83612032565b9250827fffffffffffffffffffffffffffffffffffffffffffffffffffffffffffffffff03821115611fa257611fa161212f565b5b828201905092915050565b6000611fb882612032565b9150611fc383612032565b925082821015611fd657611fd561212f565b5b828203905092915050565b6000611fec82612012565b9050919050565b60008115159050919050565b600081905061200d826121fc565b919050565b600073ffffffffffffffffffffffffffffffffffffffff82169050919050565b6000819050919050565b60006120478261204e565b9050919050565b600061205982612012565b9050919050565b600061206b82611fff565b9050919050565b82818337600083830152505050565b60005b8381101561209f578082015181840152602081019050612084565b838111156120ae576000848401525b50505050565b600060028204905060018216806120cc57607f821691505b602082108114156120e0576120df61218d565b5b50919050565b60006120f182612032565b91507fffffffffffffffffffffffffffffffffffffffffffffffffffffffffffffffff8214156121245761212361212f565b5b600182019050919050565b7f4e487b7100000000000000000000000000000000000000000000000000000000600052601160045260246000fd5b7f4e487b7100000000000000000000000000000000000000000000000000000000600052602160045260246000fd5b7f4e487b7100000000000000000000000000000000000000000000000000000000600052602260045260246000fd5b7f4e487b7100000000000000000000000000000000000000000000000000000000600052604160045260246000fd5b6000601f19601f8301169050919050565b6008811061220d5761220c61215e565b5b50565b61221981611fe1565b811461222457600080fd5b50565b61223081612032565b811461223b57600080fd5b5056fea26469706673582212206eee4380c99e2ab275acfa85717d38091db53c426de45d01d073adbdfae5bca564736f6c63430008000033",
  "immutableReferences": {},
  "source": "// SPDX-License-Identifier: MIT\r\npragma solidity ^0.8.0;\r\n\r\ncontract Proposals {\r\n    /// @notice The name of this contract\r\n    string public constant name = \"Proposals\";\r\n\r\n    /// @notice The number of votes in support of a proposal required in order for a quorum to be reached and for a vote to succeed\r\n    function quorumVotes() public pure returns (uint) { return 400000e18; } // 400,000 = 4% of Comp\r\n   \r\n    /// @notice The number of votes required in order for a voter to become a proposer\r\n    function proposalThreshold() public pure returns (uint) { return 100000e18; } // 100,000 = 1% of Comp\r\n\r\n    /// @notice The maximum number of actions that can be included in a proposal\r\n    function proposalMaxOperations() public pure returns (uint) { return 10; } // 10 actions\r\n\r\n    /// @notice The delay before voting on a proposal may take place, once proposed\r\n    function votingDelay() public pure returns (uint) { return 1; } // 1 block\r\n\r\n    /// @notice The duration of voting on a proposal, in blocks\r\n    function votingPeriod() public pure returns (uint) { return 17280; } // ~3 days in blocks (assuming 15s blocks)\r\n\r\n    /// @notice The address of the governance token\r\n    TokenInterface public token;\r\n\r\n    /// @notice The address of the Governor Guardian\r\n    address public guardian;\r\n\r\n    /// @notice The total number of proposals\r\n    uint public proposalCount;\r\n\r\n    struct Proposal {\r\n        //  Unique id for looking up a proposal\r\n        uint id;\r\n\r\n        //  Creator of the proposal\r\n        address proposer;\r\n\r\n        //  The timestamp that the proposal will be available for execution, set once the vote succeeds\r\n        uint eta;\r\n\r\n        //  the ordered list of target addresses for calls to be made\r\n        address[] targets;\r\n\r\n        //  The ordered list of values (i.e. msg.value) to be passed to the calls to be made\r\n        uint[] values;\r\n\r\n        //  The ordered list of function signatures to be called\r\n        string[] signatures;\r\n\r\n        //  The ordered list of calldata to be passed to each call\r\n        bytes[] calldatas;\r\n\r\n        //  The block at which voting begins: holders must delegate their votes prior to this block\r\n        uint startBlock;\r\n\r\n        //  The block at which voting ends: votes must be cast prior to this block\r\n        uint endBlock;\r\n\r\n        //  Current number of votes in favor of this proposal\r\n        uint forVotes;\r\n\r\n        //  Current number of votes in opposition to this proposal\r\n        uint againstVotes;\r\n\r\n        //  Flag marking whether the proposal has been canceled\r\n        bool canceled;\r\n\r\n        //  Flag marking whether the proposal has been executed\r\n        bool executed;\r\n\r\n        //  Receipts of ballots for the entire set of voters\r\n//        mapping (address => Receipt) receipts;\r\n    }\r\n\r\n    /// @notice Ballot receipt record for a voter\r\n    struct Receipt {\r\n        //  Whether or not a vote has been cast\r\n        bool hasVoted;\r\n\r\n        //  Whether or not the voter supports the proposal\r\n        bool support;\r\n\r\n        //  The number of votes the voter had, which were cast\r\n        uint96 votes;\r\n    }\r\n\r\n    /// @notice Possible states that a proposal may be in\r\n    enum ProposalState {\r\n        Pending,\r\n        Active,\r\n        Canceled,\r\n        Defeated,\r\n        Succeeded,\r\n        Queued,\r\n        Expired,\r\n        Executed\r\n    }\r\n\r\n    /// @notice The official record of all proposals ever proposed\r\n    mapping (uint => Proposal) public proposals;\r\n\r\n    /// @notice The latest proposal for each proposer\r\n    mapping (address => uint) public latestProposalIds;\r\n\r\n    /// @notice An event emitted when a new proposal is created\r\n    event ProposalCreated(uint id, address proposer, address[] targets, uint[] values, string[] signatures, bytes[] calldatas, uint startBlock, uint endBlock, string description);\r\n\r\n    constructor(address token_, address guardian_) {\r\n        token = TokenInterface(token_);\r\n        guardian = guardian_;\r\n    }\r\n\r\n    function propose(address[] memory targets, uint[] memory values, string[] memory signatures, bytes[] memory calldatas, string memory description) public returns (uint) {\r\n        require(token.getPriorVotes(msg.sender, block.number - 1) > proposalThreshold(), \"Proposals::propose: proposer votes below proposal threshold\");\r\n        require(targets.length == values.length && targets.length == signatures.length && targets.length == calldatas.length, \"Proposals::propose: proposal function information arity mismatch\");\r\n        require(targets.length != 0, \"Proposals::propose: must provide actions\");\r\n        require(targets.length <= proposalMaxOperations(), \"Proposals::propose: too many actions\");\r\n\r\n        uint latestProposalId = latestProposalIds[msg.sender];\r\n        if (latestProposalId != 0) {\r\n          ProposalState proposersLatestProposalState = state(latestProposalId);\r\n          require(proposersLatestProposalState != ProposalState.Active, \"Proposals::propose: one live proposal per proposer, found an already active proposal\");\r\n          require(proposersLatestProposalState != ProposalState.Pending, \"Proposals::propose: one live proposal per proposer, found an already pending proposal\");\r\n        }\r\n\r\n        uint startBlock = block.number + votingDelay();\r\n        uint endBlock = startBlock + votingPeriod();\r\n\r\n        proposalCount++;\r\n        Proposal memory newProposal = Proposal({\r\n            id: proposalCount,\r\n            proposer: msg.sender,\r\n            eta: 0,\r\n            targets: targets,\r\n            values: values,\r\n            signatures: signatures,\r\n            calldatas: calldatas,\r\n            startBlock: startBlock,\r\n            endBlock: endBlock,\r\n            forVotes: 0,\r\n            againstVotes: 0,\r\n            canceled: false,\r\n            executed: false\r\n        });\r\n\r\n        proposals[newProposal.id] = newProposal;\r\n        latestProposalIds[newProposal.proposer] = newProposal.id;\r\n\r\n        emit ProposalCreated(newProposal.id, msg.sender, targets, values, signatures, calldatas, startBlock, endBlock, description);\r\n        return newProposal.id;\r\n    }\r\n\r\n    function state(uint proposalId) public view returns (ProposalState) {\r\n        require(proposalCount >= proposalId && proposalId > 0, \"Proposals::state: invalid proposal id\");\r\n        Proposal storage proposal = proposals[proposalId];\r\n        if (proposal.canceled) {\r\n            return ProposalState.Canceled;\r\n        } else if (block.number <= proposal.startBlock) {\r\n            return ProposalState.Pending;\r\n        } else if (block.number <= proposal.endBlock) {\r\n            return ProposalState.Active;\r\n        } else if (proposal.forVotes <= proposal.againstVotes || proposal.forVotes < quorumVotes()) {\r\n            return ProposalState.Defeated;\r\n        } else if (proposal.eta == 0) {\r\n            return ProposalState.Succeeded;\r\n        } else if (proposal.executed) {\r\n            return ProposalState.Executed;\r\n//        } else if (block.timestamp >= proposal.eta  + timelock.GRACE_PERIOD())) {\r\n//            return ProposalState.Expired;\r\n        } else {\r\n            return ProposalState.Queued;\r\n        }\r\n    }\r\n\r\n}\r\n    \r\ninterface TokenInterface {\r\n    function getPriorVotes(address account, uint blockNumber) external view returns (uint256);\r\n\r\n} ",
  "sourcePath": "C:\\Users\\Julian\\2_om\\contracts\\4_Proposals.sol",
  "compiler": {
    "name": "solc",
    "version": "0.8.0+commit.c7dfd78e.Emscripten.clang"
  },
  "schemaVersion": "3.4.3",
  "updatedAt": "2021-10-09T16:20:55.738Z",
  "devdoc": {
    "kind": "dev",
    "methods": {},
    "version": 1
  },
  "userdoc": {
    "events": {
      "ProposalCreated(uint256,address,address[],uint256[],string[],bytes[],uint256,uint256,string)": {
        "notice": "An event emitted when a new proposal is created"
      }
    },
    "kind": "user",
    "methods": {
      "guardian()": {
        "notice": "The address of the Governor Guardian"
      },
      "latestProposalIds(address)": {
        "notice": "The latest proposal for each proposer"
      },
      "name()": {
        "notice": "The name of this contract"
      },
      "proposalCount()": {
        "notice": "The total number of proposals"
      },
      "proposalMaxOperations()": {
        "notice": "The maximum number of actions that can be included in a proposal"
      },
      "proposalThreshold()": {
        "notice": "The number of votes required in order for a voter to become a proposer"
      },
      "proposals(uint256)": {
        "notice": "The official record of all proposals ever proposed"
      },
      "quorumVotes()": {
        "notice": "The number of votes in support of a proposal required in order for a quorum to be reached and for a vote to succeed"
      },
      "token()": {
        "notice": "The address of the governance token"
      },
      "votingDelay()": {
        "notice": "The delay before voting on a proposal may take place, once proposed"
      },
      "votingPeriod()": {
        "notice": "The duration of voting on a proposal, in blocks"
      }
    },
    "version": 1
  }
}