{
  "contractName": "Treasury",
  "abi": [
    {
      "inputs": [
        {
          "internalType": "address payable",
          "name": "_owner",
          "type": "address"
        }
      ],
      "stateMutability": "nonpayable",
      "type": "constructor"
    },
    {
      "inputs": [],
      "name": "duration",
      "outputs": [
        {
          "internalType": "uint256",
          "name": "",
          "type": "uint256"
        }
      ],
      "stateMutability": "view",
      "type": "function"
    },
    {
      "inputs": [],
      "name": "end",
      "outputs": [
        {
          "internalType": "uint256",
          "name": "",
          "type": "uint256"
        }
      ],
      "stateMutability": "view",
      "type": "function"
    },
    {
      "inputs": [],
      "name": "owner",
      "outputs": [
        {
          "internalType": "address payable",
          "name": "",
          "type": "address"
        }
      ],
      "stateMutability": "view",
      "type": "function"
    },
    {
      "stateMutability": "payable",
      "type": "receive"
    },
    {
      "inputs": [
        {
          "internalType": "address",
          "name": "token",
          "type": "address"
        },
        {
          "internalType": "uint256",
          "name": "amount",
          "type": "uint256"
        }
      ],
      "name": "deposit",
      "outputs": [],
      "stateMutability": "nonpayable",
      "type": "function"
    },
    {
      "inputs": [
        {
          "internalType": "address",
          "name": "token",
          "type": "address"
        },
        {
          "internalType": "uint256",
          "name": "amount",
          "type": "uint256"
        }
      ],
      "name": "withdraw",
      "outputs": [],
      "stateMutability": "nonpayable",
      "type": "function"
    }
  ],
  "bytecode": "0x60c060405234801561001057600080fd5b506040516109883803806109888339818101604052810190610032919061009b565b6301e133804261004291906100c4565b608081815250508073ffffffffffffffffffffffffffffffffffffffff1660a08173ffffffffffffffffffffffffffffffffffffffff1660601b815250505061019c565b60008151905061009581610185565b92915050565b6000602082840312156100ad57600080fd5b60006100bb84828501610086565b91505092915050565b60006100cf8261014c565b91506100da8361014c565b9250827fffffffffffffffffffffffffffffffffffffffffffffffffffffffffffffffff0382111561010f5761010e610156565b5b828201905092915050565b60006101258261012c565b9050919050565b600073ffffffffffffffffffffffffffffffffffffffff82169050919050565b6000819050919050565b7f4e487b7100000000000000000000000000000000000000000000000000000000600052601160045260246000fd5b61018e8161011a565b811461019957600080fd5b50565b60805160a05160601c6107a86101e0600039600081816101cb015281816102130152818161033901526103c10152600081816101ef01526102a101526107a86000f3fe60806040526004361061004e5760003560e01c80630fb5a6b41461005a57806347e7ef24146100855780638da5cb5b146100ae578063efbe1c1c146100d9578063f3fef3a31461010457610055565b3661005557005b600080fd5b34801561006657600080fd5b5061006f61012d565b60405161007c9190610671565b60405180910390f35b34801561009157600080fd5b506100ac60048036038101906100a79190610495565b610135565b005b3480156100ba57600080fd5b506100c36101c9565b6040516100d091906105b6565b60405180910390f35b3480156100e557600080fd5b506100ee6101ed565b6040516100fb9190610671565b60405180910390f35b34801561011057600080fd5b5061012b60048036038101906101269190610495565b610211565b005b6301e1338081565b8173ffffffffffffffffffffffffffffffffffffffff166323b872dd3330846040518463ffffffff1660e01b8152600401610172939291906105fa565b602060405180830381600087803b15801561018c57600080fd5b505af11580156101a0573d6000803e3d6000fd5b505050506040513d601f19601f820116820180604052508101906101c491906104d1565b505050565b7f000000000000000000000000000000000000000000000000000000000000000081565b7f000000000000000000000000000000000000000000000000000000000000000081565b7f000000000000000000000000000000000000000000000000000000000000000073ffffffffffffffffffffffffffffffffffffffff163373ffffffffffffffffffffffffffffffffffffffff161461029f576040517f08c379a000000000000000000000000000000000000000000000000000000000815260040161029690610631565b60405180910390fd5b7f0000000000000000000000000000000000000000000000000000000000000000421015610302576040517f08c379a00000000000000000000000000000000000000000000000000000000081526004016102f990610651565b60405180910390fd5b600073ffffffffffffffffffffffffffffffffffffffff168273ffffffffffffffffffffffffffffffffffffffff1614156103a3577f000000000000000000000000000000000000000000000000000000000000000073ffffffffffffffffffffffffffffffffffffffff166108fc829081150290604051600060405180830381858888f1935050505015801561039d573d6000803e3d6000fd5b50610452565b8173ffffffffffffffffffffffffffffffffffffffff1663a9059cbb7f0000000000000000000000000000000000000000000000000000000000000000836040518363ffffffff1660e01b81526004016103fe9291906105d1565b602060405180830381600087803b15801561041857600080fd5b505af115801561042c573d6000803e3d6000fd5b505050506040513d601f19601f8201168201806040525081019061045091906104d1565b505b5050565b6000813590506104658161072d565b92915050565b60008151905061047a81610744565b92915050565b60008135905061048f8161075b565b92915050565b600080604083850312156104a857600080fd5b60006104b685828601610456565b92505060206104c785828601610480565b9150509250929050565b6000602082840312156104e357600080fd5b60006104f18482850161046b565b91505092915050565b610503816106f7565b82525050565b610512816106af565b82525050565b6105218161069d565b82525050565b6000610534600a8361068c565b91507f6f6e6c79206f776e6572000000000000000000000000000000000000000000006000830152602082019050919050565b600061057460098361068c565b91507f746f6f206561726c7900000000000000000000000000000000000000000000006000830152602082019050919050565b6105b0816106ed565b82525050565b60006020820190506105cb6000830184610509565b92915050565b60006040820190506105e660008301856104fa565b6105f360208301846105a7565b9392505050565b600060608201905061060f6000830186610518565b61061c6020830185610518565b61062960408301846105a7565b949350505050565b6000602082019050818103600083015261064a81610527565b9050919050565b6000602082019050818103600083015261066a81610567565b9050919050565b600060208201905061068660008301846105a7565b92915050565b600082825260208201905092915050565b60006106a8826106cd565b9050919050565b60006106ba826106cd565b9050919050565b60008115159050919050565b600073ffffffffffffffffffffffffffffffffffffffff82169050919050565b6000819050919050565b600061070282610709565b9050919050565b60006107148261071b565b9050919050565b6000610726826106cd565b9050919050565b6107368161069d565b811461074157600080fd5b50565b61074d816106c1565b811461075857600080fd5b50565b610764816106ed565b811461076f57600080fd5b5056fea2646970667358221220e25ab69f2d4d768f6980c88209cd6e3659f2ef3be3223d5994e29d0b3a6d0faa64736f6c63430008000033",
  "immutableReferences": {
    "1343": [
      {
        "length": 32,
        "start": 495
      },
      {
        "length": 32,
        "start": 673
      }
    ],
    "1345": [
      {
        "length": 32,
        "start": 459
      },
      {
        "length": 32,
        "start": 531
      },
      {
        "length": 32,
        "start": 825
      },
      {
        "length": 32,
        "start": 961
      }
    ]
  },
  "source": "// SPDX-License-Identifier: MIT\r\npragma solidity ^0.8.0;\r\n\r\nimport '@openzeppelin/contracts/token/ERC20/IERC20.sol';\r\n\r\n\r\ncontract Treasury {\r\n    \r\n    uint public constant duration = 365 days;\r\n    uint public immutable end;\r\n    address payable public immutable owner;\r\n    \r\n    constructor(address payable _owner) {\r\n        end = block.timestamp + duration;\r\n        owner = _owner;\r\n    }\r\n    \r\n    function deposit(address token, uint amount) external {\r\n        IERC20(token).transferFrom(msg.sender, address(this), amount);\r\n    }\r\n    \r\n    receive() external payable {}\r\n    \r\n    function withdraw(address token, uint amount) external {\r\n        require(msg.sender == owner, 'only owner');\r\n        require(block.timestamp >= end, 'too early');\r\n        if (token == address(0)) {\r\n            owner.transfer(amount);\r\n        } else {\r\n            IERC20(token).transfer(owner, amount);\r\n        }\r\n    }\r\n}",
  "sourcePath": "C:\\Users\\Julian\\2_om\\contracts\\3_Treasury.sol",
  "compiler": {
    "name": "solc",
    "version": "0.8.0+commit.c7dfd78e.Emscripten.clang"
  },
  "schemaVersion": "3.4.3",
  "updatedAt": "2021-10-09T16:20:55.722Z",
  "devdoc": {
    "kind": "dev",
    "methods": {},
    "version": 1
  },
  "userdoc": {
    "kind": "user",
    "methods": {},
    "version": 1
  }
}